{
  "contractName": "Messager",
  "abi": [
    {
      "inputs": [
        {
          "internalType": "string",
          "name": "",
          "type": "string"
        }
      ],
      "name": "rooms",
      "outputs": [
        {
          "internalType": "string",
          "name": "roomId",
          "type": "string"
        },
        {
          "internalType": "address",
          "name": "user1",
          "type": "address"
        },
        {
          "internalType": "address",
          "name": "user2",
          "type": "address"
        },
        {
          "internalType": "uint256",
          "name": "createdAt",
          "type": "uint256"
        },
        {
          "internalType": "bool",
          "name": "exists",
          "type": "bool"
        }
      ],
      "stateMutability": "view",
      "type": "function"
    },
    {
      "inputs": [
        {
          "internalType": "address",
          "name": "",
          "type": "address"
        }
      ],
      "name": "users",
      "outputs": [
        {
          "internalType": "address",
          "name": "userAddress",
          "type": "address"
        },
        {
          "internalType": "string",
          "name": "name",
          "type": "string"
        },
        {
          "internalType": "string",
          "name": "username",
          "type": "string"
        },
        {
          "internalType": "uint256",
          "name": "joinAt",
          "type": "uint256"
        },
        {
          "internalType": "bool",
          "name": "exists",
          "type": "bool"
        }
      ],
      "stateMutability": "view",
      "type": "function"
    },
    {
      "inputs": [
        {
          "internalType": "string",
          "name": "",
          "type": "string"
        }
      ],
      "name": "usersByUsername",
      "outputs": [
        {
          "internalType": "address",
          "name": "userAddress",
          "type": "address"
        },
        {
          "internalType": "string",
          "name": "name",
          "type": "string"
        },
        {
          "internalType": "string",
          "name": "username",
          "type": "string"
        },
        {
          "internalType": "uint256",
          "name": "joinAt",
          "type": "uint256"
        },
        {
          "internalType": "bool",
          "name": "exists",
          "type": "bool"
        }
      ],
      "stateMutability": "view",
      "type": "function"
    },
    {
      "inputs": [
        {
          "internalType": "string",
          "name": "_name",
          "type": "string"
        },
        {
          "internalType": "string",
          "name": "_username",
          "type": "string"
        }
      ],
      "name": "createAccount",
      "outputs": [],
      "stateMutability": "nonpayable",
      "type": "function"
    },
    {
      "inputs": [
        {
          "internalType": "address",
          "name": "_user",
          "type": "address"
        },
        {
          "internalType": "string",
          "name": "inviteMsg",
          "type": "string"
        }
      ],
      "name": "sendInvite",
      "outputs": [],
      "stateMutability": "nonpayable",
      "type": "function"
    },
    {
      "inputs": [
        {
          "internalType": "address",
          "name": "_user",
          "type": "address"
        }
      ],
      "name": "acceptInvite",
      "outputs": [],
      "stateMutability": "nonpayable",
      "type": "function"
    },
    {
      "inputs": [
        {
          "internalType": "string",
          "name": "_roomId",
          "type": "string"
        },
        {
          "internalType": "string",
          "name": "msgForReceiver",
          "type": "string"
        },
        {
          "internalType": "string",
          "name": "msgForSender",
          "type": "string"
        }
      ],
      "name": "sendMessage",
      "outputs": [],
      "stateMutability": "nonpayable",
      "type": "function"
    },
    {
      "inputs": [
        {
          "internalType": "address",
          "name": "user",
          "type": "address"
        },
        {
          "internalType": "address",
          "name": "potentialFriend",
          "type": "address"
        }
      ],
      "name": "isFriend",
      "outputs": [
        {
          "internalType": "bool",
          "name": "",
          "type": "bool"
        }
      ],
      "stateMutability": "view",
      "type": "function"
    },
    {
      "inputs": [
        {
          "internalType": "address",
          "name": "_user",
          "type": "address"
        }
      ],
      "name": "getInvites",
      "outputs": [
        {
          "components": [
            {
              "internalType": "address",
              "name": "sender",
              "type": "address"
            },
            {
              "internalType": "string",
              "name": "message",
              "type": "string"
            }
          ],
          "internalType": "struct Messager.Invite[]",
          "name": "",
          "type": "tuple[]"
        }
      ],
      "stateMutability": "view",
      "type": "function"
    },
    {
      "inputs": [
        {
          "internalType": "address",
          "name": "_user",
          "type": "address"
        }
      ],
      "name": "getFriends",
      "outputs": [
        {
          "internalType": "address[]",
          "name": "",
          "type": "address[]"
        }
      ],
      "stateMutability": "view",
      "type": "function"
    }
  ],
  "bytecode": "0x608060405234801561000f575f80fd5b50612e608061001d5f395ff3fe608060405234801561000f575f80fd5b506004361061009c575f3560e01c80635cbb7caa116100645780635cbb7caa14610158578063a87430ba14610188578063b87bf76e146101bc578063bbbcc869146101ec578063dbdb5563146102205761009c565b80630eabeffe146100a057806319289287146100bc578063284e9da8146100d85780632da5d42e146100f45780635ac2313314610124575b5f80fd5b6100ba60048036038101906100b59190611dab565b61023c565b005b6100d660048036038101906100d19190611e4f565b6104d1565b005b6100f260048036038101906100ed9190611f1f565b6107ea565b005b61010e60048036038101906101099190611f79565b610abe565b60405161011b9190611fd1565b60405180910390f35b61013e60048036038101906101399190611fea565b610baa565b60405161014f9594939291906120d2565b60405180910390f35b610172600480360381019061016d9190612131565b610d2b565b60405161017f9190612213565b60405180910390f35b6101a2600480360381019061019d9190612131565b610df6565b6040516101b39594939291906120d2565b60405180910390f35b6101d660048036038101906101d19190612131565b610f5e565b6040516101e39190612370565b60405180910390f35b61020660048036038101906102019190611fea565b6110db565b604051610217959493929190612390565b60405180910390f35b61023a60048036038101906102359190612131565b6111f5565b005b60048360405161024c9190612422565b90815260200160405180910390206005015f9054906101000a900460ff166102a9576040517f08c379a00000000000000000000000000000000000000000000000000000000081526004016102a090612482565b60405180910390fd5b3373ffffffffffffffffffffffffffffffffffffffff166004846040516102d09190612422565b90815260200160405180910390206001015f9054906101000a900473ffffffffffffffffffffffffffffffffffffffff1673ffffffffffffffffffffffffffffffffffffffff16148061038e57503373ffffffffffffffffffffffffffffffffffffffff166004846040516103459190612422565b90815260200160405180910390206002015f9054906101000a900473ffffffffffffffffffffffffffffffffffffffff1673ffffffffffffffffffffffffffffffffffffffff16145b6103cd576040517f08c379a00000000000000000000000000000000000000000000000000000000081526004016103c490612510565b60405180910390fd5b5f60405180608001604052803373ffffffffffffffffffffffffffffffffffffffff1681526020018481526020018381526020014281525090506004846040516104179190612422565b908152602001604051809103902060030181908060018154018082558091505060019003905f5260205f2090600402015f909190919091505f820151815f015f6101000a81548173ffffffffffffffffffffffffffffffffffffffff021916908373ffffffffffffffffffffffffffffffffffffffff16021790555060208201518160010190816104a89190612728565b5060408201518160020190816104be9190612728565b5060608201518160030155505050505050565b6001816040516104e19190612422565b90815260200160405180910390206005015f9054906101000a900460ff161561053f576040517f08c379a000000000000000000000000000000000000000000000000000000000815260040161053690612841565b60405180910390fd5b5f803373ffffffffffffffffffffffffffffffffffffffff1673ffffffffffffffffffffffffffffffffffffffff1681526020019081526020015f206005015f9054906101000a900460ff16156105cb576040517f08c379a00000000000000000000000000000000000000000000000000000000081526004016105c2906128cf565b60405180910390fd5b60605f6040518060c001604052803373ffffffffffffffffffffffffffffffffffffffff168152602001858152602001848152602001838152602001428152602001600115158152509050805f803373ffffffffffffffffffffffffffffffffffffffff1673ffffffffffffffffffffffffffffffffffffffff1681526020019081526020015f205f820151815f015f6101000a81548173ffffffffffffffffffffffffffffffffffffffff021916908373ffffffffffffffffffffffffffffffffffffffff16021790555060208201518160010190816106ac9190612728565b5060408201518160020190816106c29190612728565b5060608201518160030190805190602001906106df929190611a40565b506080820151816004015560a0820151816005015f6101000a81548160ff0219169083151502179055509050508060018460405161071d9190612422565b90815260200160405180910390205f820151815f015f6101000a81548173ffffffffffffffffffffffffffffffffffffffff021916908373ffffffffffffffffffffffffffffffffffffffff16021790555060208201518160010190816107849190612728565b50604082015181600201908161079a9190612728565b5060608201518160030190805190602001906107b7929190611a40565b506080820151816004015560a0820151816005015f6101000a81548160ff02191690831515021790555090505050505050565b5f808373ffffffffffffffffffffffffffffffffffffffff1673ffffffffffffffffffffffffffffffffffffffff1681526020019081526020015f206005015f9054906101000a900460ff16610875576040517f08c379a000000000000000000000000000000000000000000000000000000000815260040161086c90612937565b60405180910390fd5b61087f3383610abe565b156108bf576040517f08c379a00000000000000000000000000000000000000000000000000000000081526004016108b6906129c5565b60405180910390fd5b5f60025f8473ffffffffffffffffffffffffffffffffffffffff1673ffffffffffffffffffffffffffffffffffffffff1681526020019081526020015f2090505f5b81805490508110156109ce573373ffffffffffffffffffffffffffffffffffffffff16828281548110610937576109366129e3565b5b905f5260205f2090600202015f015f9054906101000a900473ffffffffffffffffffffffffffffffffffffffff1673ffffffffffffffffffffffffffffffffffffffff16036109bb576040517f08c379a00000000000000000000000000000000000000000000000000000000081526004016109b290612a5a565b60405180910390fd5b80806109c690612aa5565b915050610901565b5060025f8473ffffffffffffffffffffffffffffffffffffffff1673ffffffffffffffffffffffffffffffffffffffff1681526020019081526020015f2060405180604001604052803373ffffffffffffffffffffffffffffffffffffffff16815260200184815250908060018154018082558091505060019003905f5260205f2090600202015f909190919091505f820151815f015f6101000a81548173ffffffffffffffffffffffffffffffffffffffff021916908373ffffffffffffffffffffffffffffffffffffffff1602179055506020820151816001019081610ab69190612728565b505050505050565b5f8060035f8573ffffffffffffffffffffffffffffffffffffffff1673ffffffffffffffffffffffffffffffffffffffff1681526020019081526020015f2090505f5b8160010180549050811015610b9e578373ffffffffffffffffffffffffffffffffffffffff16826001018281548110610b3d57610b3c6129e3565b5b905f5260205f20015f9054906101000a900473ffffffffffffffffffffffffffffffffffffffff1673ffffffffffffffffffffffffffffffffffffffff1603610b8b57600192505050610ba4565b8080610b9690612aa5565b915050610b01565b505f9150505b92915050565b6001818051602081018201805184825260208301602085012081835280955050505050505f91509050805f015f9054906101000a900473ffffffffffffffffffffffffffffffffffffffff1690806001018054610c069061255b565b80601f0160208091040260200160405190810160405280929190818152602001828054610c329061255b565b8015610c7d5780601f10610c5457610100808354040283529160200191610c7d565b820191905f5260205f20905b815481529060010190602001808311610c6057829003601f168201915b505050505090806002018054610c929061255b565b80601f0160208091040260200160405190810160405280929190818152602001828054610cbe9061255b565b8015610d095780601f10610ce057610100808354040283529160200191610d09565b820191905f5260205f20905b815481529060010190602001808311610cec57829003601f168201915b505050505090806004015490806005015f9054906101000a900460ff16905085565b606060035f8373ffffffffffffffffffffffffffffffffffffffff1673ffffffffffffffffffffffffffffffffffffffff1681526020019081526020015f20600101805480602002602001604051908101604052809291908181526020018280548015610dea57602002820191905f5260205f20905b815f9054906101000a900473ffffffffffffffffffffffffffffffffffffffff1673ffffffffffffffffffffffffffffffffffffffff1681526020019060010190808311610da1575b50505050509050919050565b5f602052805f5260405f205f91509050805f015f9054906101000a900473ffffffffffffffffffffffffffffffffffffffff1690806001018054610e399061255b565b80601f0160208091040260200160405190810160405280929190818152602001828054610e659061255b565b8015610eb05780601f10610e8757610100808354040283529160200191610eb0565b820191905f5260205f20905b815481529060010190602001808311610e9357829003601f168201915b505050505090806002018054610ec59061255b565b80601f0160208091040260200160405190810160405280929190818152602001828054610ef19061255b565b8015610f3c5780601f10610f1357610100808354040283529160200191610f3c565b820191905f5260205f20905b815481529060010190602001808311610f1f57829003601f168201915b505050505090806004015490806005015f9054906101000a900460ff16905085565b606060025f8373ffffffffffffffffffffffffffffffffffffffff1673ffffffffffffffffffffffffffffffffffffffff1681526020019081526020015f20805480602002602001604051908101604052809291908181526020015f905b828210156110d0578382905f5260205f2090600202016040518060400160405290815f82015f9054906101000a900473ffffffffffffffffffffffffffffffffffffffff1673ffffffffffffffffffffffffffffffffffffffff1673ffffffffffffffffffffffffffffffffffffffff1681526020016001820180546110419061255b565b80601f016020809104026020016040519081016040528092919081815260200182805461106d9061255b565b80156110b85780601f1061108f576101008083540402835291602001916110b8565b820191905f5260205f20905b81548152906001019060200180831161109b57829003601f168201915b50505050508152505081526020019060010190610fbc565b505050509050919050565b6004818051602081018201805184825260208301602085012081835280955050505050505f91509050805f0180546111129061255b565b80601f016020809104026020016040519081016040528092919081815260200182805461113e9061255b565b80156111895780601f1061116057610100808354040283529160200191611189565b820191905f5260205f20905b81548152906001019060200180831161116c57829003601f168201915b505050505090806001015f9054906101000a900473ffffffffffffffffffffffffffffffffffffffff1690806002015f9054906101000a900473ffffffffffffffffffffffffffffffffffffffff1690806004015490806005015f9054906101000a900460ff16905085565b5f60025f3373ffffffffffffffffffffffffffffffffffffffff1673ffffffffffffffffffffffffffffffffffffffff1681526020019081526020015f2090505f805b82805490508110156113f8578373ffffffffffffffffffffffffffffffffffffffff1683828154811061126e5761126d6129e3565b5b905f5260205f2090600202015f015f9054906101000a900473ffffffffffffffffffffffffffffffffffffffff1673ffffffffffffffffffffffffffffffffffffffff16036113e5576001915082600184805490506112cd9190612aec565b815481106112de576112dd6129e3565b5b905f5260205f2090600202018382815481106112fd576112fc6129e3565b5b905f5260205f2090600202015f82015f9054906101000a900473ffffffffffffffffffffffffffffffffffffffff16815f015f6101000a81548173ffffffffffffffffffffffffffffffffffffffff021916908373ffffffffffffffffffffffffffffffffffffffff160217905550600182018160010190816113809190612b34565b509050508280548061139557611394612c19565b5b600190038181905f5260205f2090600202015f8082015f6101000a81549073ffffffffffffffffffffffffffffffffffffffff0219169055600182015f6113dc9190611a97565b505090556113f8565b80806113f090612aa5565b915050611238565b5080611439576040517f08c379a000000000000000000000000000000000000000000000000000000000815260040161143090612c90565b60405180910390fd5b5f338460405160200161144d929190612cf3565b60405160208183030381529060405290506114683385610abe565b6118135760035f3373ffffffffffffffffffffffffffffffffffffffff1673ffffffffffffffffffffffffffffffffffffffff1681526020019081526020015f2060010184908060018154018082558091505060019003905f5260205f20015f9091909190916101000a81548173ffffffffffffffffffffffffffffffffffffffff021916908373ffffffffffffffffffffffffffffffffffffffff16021790555060035f8573ffffffffffffffffffffffffffffffffffffffff1673ffffffffffffffffffffffffffffffffffffffff1681526020019081526020015f2060010133908060018154018082558091505060019003905f5260205f20015f9091909190916101000a81548173ffffffffffffffffffffffffffffffffffffffff021916908373ffffffffffffffffffffffffffffffffffffffff1602179055508060035f3373ffffffffffffffffffffffffffffffffffffffff1673ffffffffffffffffffffffffffffffffffffffff1681526020019081526020015f205f015f8673ffffffffffffffffffffffffffffffffffffffff1673ffffffffffffffffffffffffffffffffffffffff1681526020019081526020015f20908161162f9190612728565b508060035f8673ffffffffffffffffffffffffffffffffffffffff1673ffffffffffffffffffffffffffffffffffffffff1681526020019081526020015f205f015f3373ffffffffffffffffffffffffffffffffffffffff1673ffffffffffffffffffffffffffffffffffffffff1681526020019081526020015f2090816116b79190612728565b505f803373ffffffffffffffffffffffffffffffffffffffff1673ffffffffffffffffffffffffffffffffffffffff1681526020019081526020015f206003015f808673ffffffffffffffffffffffffffffffffffffffff1673ffffffffffffffffffffffffffffffffffffffff1681526020019081526020015f20600201908060018154018082558091505060019003905f5260205f20015f9091909190915090816117649190612d45565b505f808573ffffffffffffffffffffffffffffffffffffffff1673ffffffffffffffffffffffffffffffffffffffff1681526020019081526020015f206003015f803373ffffffffffffffffffffffffffffffffffffffff1673ffffffffffffffffffffffffffffffffffffffff1681526020019081526020015f20600201908060018154018082558091505060019003905f5260205f20015f9091909190915090816118119190612d45565b505b5f6004826040516118249190612422565b9081526020016040518091039020905081815f0190816118449190612728565b5033816001015f6101000a81548173ffffffffffffffffffffffffffffffffffffffff021916908373ffffffffffffffffffffffffffffffffffffffff16021790555084816002015f6101000a81548173ffffffffffffffffffffffffffffffffffffffff021916908373ffffffffffffffffffffffffffffffffffffffff1602179055504281600401819055506001816005015f6101000a81548160ff021916908315150217905550806004836040516118ff9190612422565b90815260200160405180910390205f8201815f01908161191f9190612b34565b50600182015f9054906101000a900473ffffffffffffffffffffffffffffffffffffffff16816001015f6101000a81548173ffffffffffffffffffffffffffffffffffffffff021916908373ffffffffffffffffffffffffffffffffffffffff160217905550600282015f9054906101000a900473ffffffffffffffffffffffffffffffffffffffff16816002015f6101000a81548173ffffffffffffffffffffffffffffffffffffffff021916908373ffffffffffffffffffffffffffffffffffffffff1602179055506003820181600301908054611a00929190611ad4565b5060048201548160040155600582015f9054906101000a900460ff16816005015f6101000a81548160ff0219169083151502179055509050505050505050565b828054828255905f5260205f20908101928215611a86579160200282015b82811115611a85578251829081611a759190612728565b5091602001919060010190611a5e565b5b509050611a939190611bbf565b5090565b508054611aa39061255b565b5f825580601f10611ab45750611ad1565b601f0160209004905f5260205f2090810190611ad09190611be2565b5b50565b828054828255905f5260205f20906004028101928215611bae575f5260205f209160040282015b82811115611bad5782825f82015f9054906101000a900473ffffffffffffffffffffffffffffffffffffffff16815f015f6101000a81548173ffffffffffffffffffffffffffffffffffffffff021916908373ffffffffffffffffffffffffffffffffffffffff16021790555060018201816001019081611b7c9190612b34565b5060028201816002019081611b919190612b34565b5060038201548160030155505091600401919060040190611afb565b5b509050611bbb9190611bfd565b5090565b5b80821115611bde575f8181611bd59190611a97565b50600101611bc0565b5090565b5b80821115611bf9575f815f905550600101611be3565b5090565b5b80821115611c5a575f8082015f6101000a81549073ffffffffffffffffffffffffffffffffffffffff0219169055600182015f611c3b9190611a97565b600282015f611c4a9190611a97565b600382015f905550600401611bfe565b5090565b5f604051905090565b5f80fd5b5f80fd5b5f80fd5b5f80fd5b5f601f19601f8301169050919050565b7f4e487b71000000000000000000000000000000000000000000000000000000005f52604160045260245ffd5b611cbd82611c77565b810181811067ffffffffffffffff82111715611cdc57611cdb611c87565b5b80604052505050565b5f611cee611c5e565b9050611cfa8282611cb4565b919050565b5f67ffffffffffffffff821115611d1957611d18611c87565b5b611d2282611c77565b9050602081019050919050565b828183375f83830152505050565b5f611d4f611d4a84611cff565b611ce5565b905082815260208101848484011115611d6b57611d6a611c73565b5b611d76848285611d2f565b509392505050565b5f82601f830112611d9257611d91611c6f565b5b8135611da2848260208601611d3d565b91505092915050565b5f805f60608486031215611dc257611dc1611c67565b5b5f84013567ffffffffffffffff811115611ddf57611dde611c6b565b5b611deb86828701611d7e565b935050602084013567ffffffffffffffff811115611e0c57611e0b611c6b565b5b611e1886828701611d7e565b925050604084013567ffffffffffffffff811115611e3957611e38611c6b565b5b611e4586828701611d7e565b9150509250925092565b5f8060408385031215611e6557611e64611c67565b5b5f83013567ffffffffffffffff811115611e8257611e81611c6b565b5b611e8e85828601611d7e565b925050602083013567ffffffffffffffff811115611eaf57611eae611c6b565b5b611ebb85828601611d7e565b9150509250929050565b5f73ffffffffffffffffffffffffffffffffffffffff82169050919050565b5f611eee82611ec5565b9050919050565b611efe81611ee4565b8114611f08575f80fd5b50565b5f81359050611f1981611ef5565b92915050565b5f8060408385031215611f3557611f34611c67565b5b5f611f4285828601611f0b565b925050602083013567ffffffffffffffff811115611f6357611f62611c6b565b5b611f6f85828601611d7e565b9150509250929050565b5f8060408385031215611f8f57611f8e611c67565b5b5f611f9c85828601611f0b565b9250506020611fad85828601611f0b565b9150509250929050565b5f8115159050919050565b611fcb81611fb7565b82525050565b5f602082019050611fe45f830184611fc2565b92915050565b5f60208284031215611fff57611ffe611c67565b5b5f82013567ffffffffffffffff81111561201c5761201b611c6b565b5b61202884828501611d7e565b91505092915050565b61203a81611ee4565b82525050565b5f81519050919050565b5f82825260208201905092915050565b5f5b8381101561207757808201518184015260208101905061205c565b5f8484015250505050565b5f61208c82612040565b612096818561204a565b93506120a681856020860161205a565b6120af81611c77565b840191505092915050565b5f819050919050565b6120cc816120ba565b82525050565b5f60a0820190506120e55f830188612031565b81810360208301526120f78187612082565b9050818103604083015261210b8186612082565b905061211a60608301856120c3565b6121276080830184611fc2565b9695505050505050565b5f6020828403121561214657612145611c67565b5b5f61215384828501611f0b565b91505092915050565b5f81519050919050565b5f82825260208201905092915050565b5f819050602082019050919050565b61218e81611ee4565b82525050565b5f61219f8383612185565b60208301905092915050565b5f602082019050919050565b5f6121c18261215c565b6121cb8185612166565b93506121d683612176565b805f5b838110156122065781516121ed8882612194565b97506121f8836121ab565b9250506001810190506121d9565b5085935050505092915050565b5f6020820190508181035f83015261222b81846121b7565b905092915050565b5f81519050919050565b5f82825260208201905092915050565b5f819050602082019050919050565b5f82825260208201905092915050565b5f61227682612040565b612280818561225c565b935061229081856020860161205a565b61229981611c77565b840191505092915050565b5f604083015f8301516122b95f860182612185565b50602083015184820360208601526122d1828261226c565b9150508091505092915050565b5f6122e983836122a4565b905092915050565b5f602082019050919050565b5f61230782612233565b612311818561223d565b9350836020820285016123238561224d565b805f5b8581101561235e578484038952815161233f85826122de565b945061234a836122f1565b925060208a01995050600181019050612326565b50829750879550505050505092915050565b5f6020820190508181035f83015261238881846122fd565b905092915050565b5f60a0820190508181035f8301526123a88188612082565b90506123b76020830187612031565b6123c46040830186612031565b6123d160608301856120c3565b6123de6080830184611fc2565b9695505050505050565b5f81905092915050565b5f6123fc82612040565b61240681856123e8565b935061241681856020860161205a565b80840191505092915050565b5f61242d82846123f2565b915081905092915050565b7f526f6f6d20646f6573206e6f74206578697374000000000000000000000000005f82015250565b5f61246c60138361204a565b915061247782612438565b602082019050919050565b5f6020820190508181035f83015261249981612460565b9050919050565b7f596f7520646f206e6f7420686176652061636365737320746f207468697320725f8201527f6f6f6d0000000000000000000000000000000000000000000000000000000000602082015250565b5f6124fa60238361204a565b9150612505826124a0565b604082019050919050565b5f6020820190508181035f830152612527816124ee565b9050919050565b7f4e487b71000000000000000000000000000000000000000000000000000000005f52602260045260245ffd5b5f600282049050600182168061257257607f821691505b6020821081036125855761258461252e565b5b50919050565b5f819050815f5260205f209050919050565b5f6020601f8301049050919050565b5f82821b905092915050565b5f600883026125e77fffffffffffffffffffffffffffffffffffffffffffffffffffffffffffffffff826125ac565b6125f186836125ac565b95508019841693508086168417925050509392505050565b5f819050919050565b5f61262c612627612622846120ba565b612609565b6120ba565b9050919050565b5f819050919050565b61264583612612565b61265961265182612633565b8484546125b8565b825550505050565b5f90565b61266d612661565b61267881848461263c565b505050565b5b8181101561269b576126905f82612665565b60018101905061267e565b5050565b601f8211156126e0576126b18161258b565b6126ba8461259d565b810160208510156126c9578190505b6126dd6126d58561259d565b83018261267d565b50505b505050565b5f82821c905092915050565b5f6127005f19846008026126e5565b1980831691505092915050565b5f61271883836126f1565b9150826002028217905092915050565b61273182612040565b67ffffffffffffffff81111561274a57612749611c87565b5b612754825461255b565b61275f82828561269f565b5f60209050601f831160018114612790575f841561277e578287015190505b612788858261270d565b8655506127ef565b601f19841661279e8661258b565b5f5b828110156127c5578489015182556001820191506020850194506020810190506127a0565b868310156127e257848901516127de601f8916826126f1565b8355505b6001600288020188555050505b505050505050565b7f557365726e616d6520616c7265616479206578697374730000000000000000005f82015250565b5f61282b60178361204a565b9150612836826127f7565b602082019050919050565b5f6020820190508181035f8301526128588161281f565b9050919050565b7f546869732077616c6c657420616c72656164792068617320616e206163636f755f8201527f6e74000000000000000000000000000000000000000000000000000000000000602082015250565b5f6128b960228361204a565b91506128c48261285f565b604082019050919050565b5f6020820190508181035f8301526128e6816128ad565b9050919050565b7f5573657220646f6573206e6f74206578697374000000000000000000000000005f82015250565b5f61292160138361204a565b915061292c826128ed565b602082019050919050565b5f6020820190508181035f83015261294e81612915565b9050919050565b7f596f752061726520616c726561647920667269656e64732077697468207468695f8201527f7320757365720000000000000000000000000000000000000000000000000000602082015250565b5f6129af60268361204a565b91506129ba82612955565b604082019050919050565b5f6020820190508181035f8301526129dc816129a3565b9050919050565b7f4e487b71000000000000000000000000000000000000000000000000000000005f52603260045260245ffd5b7f496e7669746520616c72656164792073656e74000000000000000000000000005f82015250565b5f612a4460138361204a565b9150612a4f82612a10565b602082019050919050565b5f6020820190508181035f830152612a7181612a38565b9050919050565b7f4e487b71000000000000000000000000000000000000000000000000000000005f52601160045260245ffd5b5f612aaf826120ba565b91507fffffffffffffffffffffffffffffffffffffffffffffffffffffffffffffffff8203612ae157612ae0612a78565b5b600182019050919050565b5f612af6826120ba565b9150612b01836120ba565b9250828203905081811115612b1957612b18612a78565b5b92915050565b5f81549050612b2d8161255b565b9050919050565b818103612b42575050612c17565b612b4b82612b1f565b67ffffffffffffffff811115612b6457612b63611c87565b5b612b6e825461255b565b612b7982828561269f565b5f601f831160018114612ba6575f8415612b94578287015490505b612b9e858261270d565b865550612c10565b601f198416612bb48761258b565b9650612bbf8661258b565b5f5b82811015612be657848901548255600182019150600185019450602081019050612bc1565b86831015612c035784890154612bff601f8916826126f1565b8355505b6001600288020188555050505b5050505050505b565b7f4e487b71000000000000000000000000000000000000000000000000000000005f52603160045260245ffd5b7f496e7669746520646f6573206e6f7420657869737400000000000000000000005f82015250565b5f612c7a60158361204a565b9150612c8582612c46565b602082019050919050565b5f6020820190508181035f830152612ca781612c6e565b9050919050565b5f8160601b9050919050565b5f612cc482612cae565b9050919050565b5f612cd582612cba565b9050919050565b612ced612ce882611ee4565b612ccb565b82525050565b5f612cfe8285612cdc565b601482019150612d0e8284612cdc565b6014820191508190509392505050565b5f81549050612d2c8161255b565b9050919050565b5f819050815f5260205f209050919050565b818103612d53575050612e28565b612d5c82612d1e565b67ffffffffffffffff811115612d7557612d74611c87565b5b612d7f825461255b565b612d8a82828561269f565b5f601f831160018114612db7575f8415612da5578287015490505b612daf858261270d565b865550612e21565b601f198416612dc587612d33565b9650612dd08661258b565b5f5b82811015612df757848901548255600182019150600185019450602081019050612dd2565b86831015612e145784890154612e10601f8916826126f1565b8355505b6001600288020188555050505b5050505050505b56fea2646970667358221220d66f145ddff1d9f9fd6e7db2710cf92208a81f81a12e45f16f785de2b56915c664736f6c63430008150033",
  "immutableReferences": {},
  "source": "// SPDX-License-Identifier: MIT\r\npragma solidity ^0.8.21;\r\n\r\ncontract Messager {\r\n\r\n    struct User {\r\n        address userAddress;\r\n        string name;\r\n        string username;\r\n        string[] friends;\r\n        uint256 joinAt;\r\n        bool exists;\r\n    }\r\n\r\n    struct Invite {\r\n        address sender;\r\n        string message;\r\n    }\r\n\r\n    struct Friends {\r\n        mapping(address => string) friendToRoomId;\r\n        address[] friendList;\r\n    }\r\n\r\n    struct Message {\r\n        address sender;\r\n        string msgForReceiver;\r\n        string msgForSender;\r\n        uint256 time;\r\n    }\r\n\r\n    struct Room {\r\n        string roomId;\r\n        address user1;\r\n        address user2;\r\n        Message[] messages;\r\n        uint256 createdAt;\r\n        bool exists;\r\n    }\r\n\r\n    mapping(address => User) public users;\r\n    mapping(string => User) public usersByUsername;\r\n    mapping(address => Invite[]) private invites;\r\n    mapping(address => Friends) private userFriends;\r\n    mapping(string => Room) public rooms;\r\n\r\n    // Create User\r\n    function createAccount(string memory _name, string memory _username) public {\r\n        require(!usersByUsername[_username].exists, \"Username already exists\");\r\n        require(!users[msg.sender].exists, \"This wallet already has an account\");\r\n\r\n        string[] memory friends;\r\n        User memory newUser = User({\r\n            userAddress: msg.sender,\r\n            name: _name,\r\n            username: _username,\r\n            friends: friends,\r\n            joinAt: block.timestamp,\r\n            exists: true\r\n        });\r\n\r\n        users[msg.sender] = newUser;\r\n        usersByUsername[_username] = newUser;\r\n    }\r\n\r\n    // Send Invite\r\n    function sendInvite(address _user, string memory inviteMsg) public {\r\n        require(users[_user].exists, \"User does not exist\");\r\n        require(!isFriend(msg.sender, _user), \"You are already friends with this user\");\r\n\r\n        Invite[] storage userInvites = invites[_user];\r\n        for (uint256 i = 0; i < userInvites.length; i++) {\r\n            require(userInvites[i].sender != msg.sender, \"Invite already sent\");\r\n        }\r\n\r\n        invites[_user].push(Invite({\r\n            sender: msg.sender,\r\n            message: inviteMsg\r\n        }));\r\n    }\r\n\r\n    // Accept Invite\r\n    function acceptInvite(address _user) public {\r\n        Invite[] storage userInvites = invites[msg.sender];\r\n        bool inviteFound = false;\r\n        for (uint256 i = 0; i < userInvites.length; i++) {\r\n            if (userInvites[i].sender == _user) {\r\n                inviteFound = true;\r\n                userInvites[i] = userInvites[userInvites.length - 1];\r\n                userInvites.pop();\r\n                break;\r\n            }\r\n        }\r\n        require(inviteFound, \"Invite does not exist\");\r\n\r\n        string memory roomId = string(abi.encodePacked(msg.sender, _user));\r\n\r\n        if (!isFriend(msg.sender, _user)) {\r\n            userFriends[msg.sender].friendList.push(_user);\r\n            userFriends[_user].friendList.push(msg.sender);\r\n\r\n            userFriends[msg.sender].friendToRoomId[_user] = roomId;\r\n            userFriends[_user].friendToRoomId[msg.sender] = roomId;\r\n\r\n            users[msg.sender].friends.push(users[_user].username);\r\n            users[_user].friends.push(users[msg.sender].username);\r\n        }\r\n\r\n       Room storage newRoom = rooms[roomId];\r\n        newRoom.roomId = roomId;\r\n        newRoom.user1 = msg.sender;\r\n        newRoom.user2 = _user;\r\n        newRoom.createdAt = block.timestamp;\r\n        newRoom.exists = true;\r\n        rooms[roomId] = newRoom;\r\n    }\r\n\r\n    // Send Message\r\n    function sendMessage(string memory _roomId, string memory msgForReceiver, string memory msgForSender) public {\r\n        require(rooms[_roomId].exists, \"Room does not exist\");\r\n        require(rooms[_roomId].user1 == msg.sender || rooms[_roomId].user2 == msg.sender, \"You do not have access to this room\");\r\n\r\n        Message memory newMessage = Message({\r\n            sender: msg.sender,\r\n            msgForReceiver: msgForReceiver,\r\n            msgForSender: msgForSender,\r\n            time: block.timestamp\r\n        });\r\n\r\n        rooms[_roomId].messages.push(newMessage);\r\n    }\r\n\r\n    function isFriend(address user, address potentialFriend) public view returns (bool) {\r\n        Friends storage friends = userFriends[user];\r\n        for (uint256 i = 0; i < friends.friendList.length; i++) {\r\n            if (friends.friendList[i] == potentialFriend) {\r\n                return true;\r\n            }\r\n        }\r\n        return false;\r\n    }\r\n\r\n    // Getter for invites (if needed)\r\n    function getInvites(address _user) public view returns (Invite[] memory) {\r\n        return invites[_user];\r\n    }\r\n\r\n    // Getter for friends (if needed)\r\n    function getFriends(address _user) public view returns (address[] memory) {\r\n        return userFriends[_user].friendList;\r\n    }\r\n}\r\n",
  "sourcePath": "C:\\Users\\lenovo\\Desktop\\blockchain\\etherum\\Massanger\\contracts\\Messager.sol",
  "compiler": {
    "name": "solc",
    "version": "0.8.21+commit.d9974bed.Emscripten.clang"
  },
  "schemaVersion": "3.4.16",
  "updatedAt": "2024-07-24T16:46:37.387Z",
  "devdoc": {
    "kind": "dev",
    "methods": {},
    "version": 1
  },
  "userdoc": {
    "kind": "user",
    "methods": {},
    "version": 1
  }
}